{
  "contractName": "Market",
  "abi": [
    {
      "constant": true,
      "inputs": [
        {
          "name": "",
          "type": "address"
        }
      ],
      "name": "balances",
      "outputs": [
        {
          "name": "",
          "type": "uint256"
        }
      ],
      "payable": false,
      "stateMutability": "view",
      "type": "function"
    },
    {
      "constant": true,
      "inputs": [
        {
          "name": "",
          "type": "uint256"
        }
      ],
      "name": "items",
      "outputs": [
        {
          "name": "owner",
          "type": "address"
        },
        {
          "name": "forSale",
          "type": "bool"
        },
        {
          "name": "price",
          "type": "uint256"
        }
      ],
      "payable": false,
      "stateMutability": "view",
      "type": "function"
    },
    {
      "inputs": [],
      "payable": false,
      "stateMutability": "nonpayable",
      "type": "constructor"
    },
    {
      "anonymous": false,
      "inputs": [
        {
          "indexed": false,
          "name": "index",
          "type": "uint256"
        }
      ],
      "name": "ItemOwnerChanged",
      "type": "event"
    },
    {
      "anonymous": false,
      "inputs": [
        {
          "indexed": false,
          "name": "index",
          "type": "uint256"
        },
        {
          "indexed": false,
          "name": "price",
          "type": "uint256"
        }
      ],
      "name": "ItemPriceChanged",
      "type": "event"
    },
    {
      "anonymous": false,
      "inputs": [
        {
          "indexed": false,
          "name": "index",
          "type": "uint256"
        },
        {
          "indexed": false,
          "name": "price",
          "type": "uint256"
        },
        {
          "indexed": false,
          "name": "forSale",
          "type": "bool"
        }
      ],
      "name": "ItemAvailabilityChanged",
      "type": "event"
    },
    {
      "constant": false,
      "inputs": [
        {
          "name": "index",
          "type": "uint256"
        },
        {
          "name": "price",
          "type": "uint256"
        }
      ],
      "name": "putItemUpForSale",
      "outputs": [],
      "payable": false,
      "stateMutability": "nonpayable",
      "type": "function"
    },
    {
      "constant": false,
      "inputs": [
        {
          "name": "index",
          "type": "uint256"
        }
      ],
      "name": "takeOffMarket",
      "outputs": [],
      "payable": false,
      "stateMutability": "nonpayable",
      "type": "function"
    },
    {
      "constant": true,
      "inputs": [],
      "name": "getItems",
      "outputs": [
        {
          "name": "",
          "type": "address[]"
        },
        {
          "name": "",
          "type": "bool[]"
        },
        {
          "name": "",
          "type": "uint256[]"
        }
      ],
      "payable": false,
      "stateMutability": "view",
      "type": "function"
    },
    {
      "constant": false,
      "inputs": [
        {
          "name": "index",
          "type": "uint256"
        }
      ],
      "name": "buyItem",
      "outputs": [],
      "payable": true,
      "stateMutability": "payable",
      "type": "function"
    },
    {
      "constant": false,
      "inputs": [],
      "name": "withdrawFunds",
      "outputs": [],
      "payable": false,
      "stateMutability": "nonpayable",
      "type": "function"
    },
    {
      "constant": false,
      "inputs": [],
      "name": "destroy",
      "outputs": [],
      "payable": true,
      "stateMutability": "payable",
      "type": "function"
    }
  ],
  "bytecode": "0x60806040523480156200001157600080fd5b50336000806101000a81548173ffffffffffffffffffffffffffffffffffffffff021916908373ffffffffffffffffffffffffffffffffffffffff160217905550610fa060026000600c811015156200006657fe5b6002020160010181905550600160026000600c811015156200008457fe5b6002020160000160146101000a81548160ff021916908315150217905550610fa060026001600c81101515620000b657fe5b6002020160010181905550600160026001600c81101515620000d457fe5b6002020160000160146101000a81548160ff021916908315150217905550610fa0600280600c811015156200010557fe5b60020201600101819055506001600280600c811015156200012257fe5b6002020160000160146101000a81548160ff021916908315150217905550610fa060026003600c811015156200015457fe5b6002020160010181905550600160026003600c811015156200017257fe5b6002020160000160146101000a81548160ff021916908315150217905550610fa060026004600c81101515620001a457fe5b6002020160010181905550600160026004600c81101515620001c257fe5b6002020160000160146101000a81548160ff021916908315150217905550610fa060026005600c81101515620001f457fe5b6002020160010181905550600160026005600c811015156200021257fe5b6002020160000160146101000a81548160ff021916908315150217905550610fa060026006600c811015156200024457fe5b6002020160010181905550600160026006600c811015156200026257fe5b6002020160000160146101000a81548160ff021916908315150217905550610fa060026007600c811015156200029457fe5b6002020160010181905550600160026007600c81101515620002b257fe5b6002020160000160146101000a81548160ff021916908315150217905550610fa060026008600c81101515620002e457fe5b6002020160010181905550600160026008600c811015156200030257fe5b6002020160000160146101000a81548160ff021916908315150217905550610fa060026009600c811015156200033457fe5b6002020160010181905550600160026009600c811015156200035257fe5b6002020160000160146101000a81548160ff021916908315150217905550610fa06002600a600c811015156200038457fe5b600202016001018190555060016002600a600c81101515620003a257fe5b6002020160000160146101000a81548160ff021916908315150217905550610fa06002600b600c81101515620003d457fe5b600202016001018190555060016002600b600c81101515620003f257fe5b6002020160000160146101000a81548160ff021916908315150217905550610b6a80620004206000396000f3fe60806040526004361061008e576000357c0100000000000000000000000000000000000000000000000000000000900463ffffffff16806324600fc31461009357806327e235e3146100aa578063410d59cc1461010f578063459b36671461020b57806383197ef014610250578063bfb231d21461025a578063d1311446146102e7578063e7fb74c714610322575b600080fd5b34801561009f57600080fd5b506100a8610350565b005b3480156100b657600080fd5b506100f9600480360360208110156100cd57600080fd5b81019080803573ffffffffffffffffffffffffffffffffffffffff169060200190929190505050610431565b6040518082815260200191505060405180910390f35b34801561011b57600080fd5b50610124610449565b60405180806020018060200180602001848103845287818151815260200191508051906020019060200280838360005b8381101561016f578082015181840152602081019050610154565b50505050905001848103835286818151815260200191508051906020019060200280838360005b838110156101b1578082015181840152602081019050610196565b50505050905001848103825285818151815260200191508051906020019060200280838360005b838110156101f35780820151818401526020810190506101d8565b50505050905001965050505050505060405180910390f35b34801561021757600080fd5b5061024e6004803603604081101561022e57600080fd5b8101908080359060200190929190803590602001909291905050506105f6565b005b6102586106ee565b005b34801561026657600080fd5b506102936004803603602081101561027d57600080fd5b8101908080359060200190929190505050610783565b604051808473ffffffffffffffffffffffffffffffffffffffff1673ffffffffffffffffffffffffffffffffffffffff16815260200183151515158152602001828152602001935050505060405180910390f35b3480156102f357600080fd5b506103206004803603602081101561030a57600080fd5b81019080803590602001909291905050506107df565b005b61034e6004803603602081101561033857600080fd5b81019080803590602001909291905050506108c5565b005b60003390506000600160008373ffffffffffffffffffffffffffffffffffffffff1673ffffffffffffffffffffffffffffffffffffffff1681526020019081526020016000205490506000811115156103a857600080fd5b6000600160008473ffffffffffffffffffffffffffffffffffffffff1673ffffffffffffffffffffffffffffffffffffffff168152602001908152602001600020819055508173ffffffffffffffffffffffffffffffffffffffff166108fc829081150290604051600060405180830381858888f19350505050151561042d57600080fd5b5050565b60016020528060005260406000206000915090505481565b606080606080600c60405190808252806020026020018201604052801561047f5781602001602082028038833980820191505090505b5090506060600c6040519080825280602002602001820160405280156104b45781602001602082028038833980820191505090505b5090506060600c6040519080825280602002602001820160405280156104e95781602001602082028038833980820191505090505b50905060008090505b600c8110156105e4576000600282600c8110151561050c57fe5b6002020190508060000160009054906101000a900473ffffffffffffffffffffffffffffffffffffffff16858381518110151561054557fe5b9060200190602002019073ffffffffffffffffffffffffffffffffffffffff16908173ffffffffffffffffffffffffffffffffffffffff16815250508060010154838381518110151561059457fe5b90602001906020020181815250508060000160149054906101000a900460ff1684838151811015156105c257fe5b90602001906020020190151590811515815250505080806001019150506104f2565b50828282955095509550505050909192565b6000600283600c8110151561060757fe5b6002020190508060000160009054906101000a900473ffffffffffffffffffffffffffffffffffffffff1673ffffffffffffffffffffffffffffffffffffffff163373ffffffffffffffffffffffffffffffffffffffff1614801561066c5750600082115b151561067757600080fd5b60018160000160146101000a81548160ff0219169083151502179055508181600101819055507f9350192146aa4e7b81cdcfdd4ba5e0d8e7d39258ba970f17d859c79cda276036838360016040518084815260200183815260200182151515158152602001935050505060405180910390a1505050565b6000809054906101000a900473ffffffffffffffffffffffffffffffffffffffff1673ffffffffffffffffffffffffffffffffffffffff163373ffffffffffffffffffffffffffffffffffffffff1614151561074957600080fd5b6000809054906101000a900473ffffffffffffffffffffffffffffffffffffffff1673ffffffffffffffffffffffffffffffffffffffff16ff5b600281600c8110151561079257fe5b600202016000915090508060000160009054906101000a900473ffffffffffffffffffffffffffffffffffffffff16908060000160149054906101000a900460ff16908060010154905083565b6000600282600c811015156107f057fe5b6002020190508060000160009054906101000a900473ffffffffffffffffffffffffffffffffffffffff1673ffffffffffffffffffffffffffffffffffffffff163373ffffffffffffffffffffffffffffffffffffffff1614151561085457600080fd5b60008160000160146101000a81548160ff0219169083151502179055507f9350192146aa4e7b81cdcfdd4ba5e0d8e7d39258ba970f17d859c79cda27603682826001015460006040518084815260200183815260200182151515158152602001935050505060405180910390a15050565b6000600282600c811015156108d657fe5b6002020190508060000160009054906101000a900473ffffffffffffffffffffffffffffffffffffffff1673ffffffffffffffffffffffffffffffffffffffff163373ffffffffffffffffffffffffffffffffffffffff161415801561094a57508060000160149054906101000a900460ff165b801561095a575080600101543410155b151561096557600080fd5b600073ffffffffffffffffffffffffffffffffffffffff168160000160009054906101000a900473ffffffffffffffffffffffffffffffffffffffff1673ffffffffffffffffffffffffffffffffffffffff161415610a315734600160008060009054906101000a900473ffffffffffffffffffffffffffffffffffffffff1673ffffffffffffffffffffffffffffffffffffffff1673ffffffffffffffffffffffffffffffffffffffff16815260200190815260200160002060008282540192505081905550610aa3565b34600160008360000160009054906101000a900473ffffffffffffffffffffffffffffffffffffffff1673ffffffffffffffffffffffffffffffffffffffff1673ffffffffffffffffffffffffffffffffffffffff168152602001908152602001600020600082825401925050819055505b338160000160006101000a81548173ffffffffffffffffffffffffffffffffffffffff021916908373ffffffffffffffffffffffffffffffffffffffff16021790555060008160000160146101000a81548160ff0219169083151502179055507f0d9cc272c105f63c63037256e3c86df72696be19b9d5c55d8081f701f50a6e67826040518082815260200191505060405180910390a1505056fea165627a7a7230582050729c7afaac9d8410a9eb581e3db8cc57db761e74935c37798f495d28c411ff0029",
  "source": "pragma solidity >=0.4.22 <0.6.0;\n\ncontract Market {\n    address payable owner;\n    mapping (address => uint) public balances;\n    \n    struct Item {\n        address owner;\n        bool forSale;\n        uint price;\n    }\n    \n    Item[12] public items;\n    \n    event ItemOwnerChanged(\n        uint index\n    );\n    \n    event ItemPriceChanged(\n        uint index,\n        uint price\n    );\n    \n    event ItemAvailabilityChanged(\n        uint index,\n        uint price,\n        bool forSale\n    );\n    \n    constructor() public {\n        owner = msg.sender;\n        items[0].price = 4000;\n        items[0].forSale = true;\n        items[1].price = 4000;\n        items[1].forSale = true;\n        items[2].price = 4000;\n        items[2].forSale = true;\n        items[3].price = 4000;\n        items[3].forSale = true;\n        items[4].price = 4000;\n        items[4].forSale = true;\n        items[5].price = 4000;\n        items[5].forSale = true;\n        items[6].price = 4000;\n        items[6].forSale = true;\n        items[7].price = 4000;\n        items[7].forSale = true;\n        items[8].price = 4000;\n        items[8].forSale = true;\n        items[9].price = 4000;\n        items[9].forSale = true;\n        items[10].price = 4000;\n        items[10].forSale = true;\n        items[11].price = 4000;\n        items[11].forSale = true;\n        \n    }\n    \n    function putItemUpForSale(uint index, uint price) public {\n        Item storage item = items[index];\n        \n        require(msg.sender == item.owner && price > 0);\n        \n        item.forSale = true;\n        item.price = price;\n        emit ItemAvailabilityChanged(index, price, true);\n    }\n    \n    function takeOffMarket(uint index) public {\n        Item storage item = items[index];\n        \n        require(msg.sender == item.owner);\n        \n        item.forSale = false;\n        emit ItemAvailabilityChanged(index, item.price, false);\n    }\n    \n    function getItems() public view returns(address[] memory , bool[]memory , uint[] memory) {\n        address[] memory addrs = new address[](12);\n        bool[] memory available = new bool[](12);\n        uint[] memory price = new uint[](12);\n        \n        for (uint i = 0; i < 12; i++) {\n            Item storage item = items[i];\n            addrs[i] = item.owner;\n            price[i] = item.price;\n            available[i] = item.forSale;\n        }\n        \n        return (addrs, available, price);\n    }\n    \n    function buyItem(uint index) public payable {\n        Item storage item = items[index];\n        \n        require(msg.sender != item.owner && item.forSale && msg.value >= item.price);\n        \n        if(item.owner == 0x0000000000000000000000000000000000000000) {\n            balances[owner] += msg.value;\n        }else {\n            balances[item.owner] += msg.value;\n        }\n        \n        item.owner = msg.sender;\n        item.forSale = false;\n        \n        emit ItemOwnerChanged(index);\n    }\n    \n    function withdrawFunds() public {\n        address payable payee = msg.sender;\n          uint payment = balances[payee];\n    \n          require(payment > 0);\n    \n          balances[payee] = 0;\n          require(payee.send(payment));\n    }\n    \n    \n    function destroy() payable public {\n        require(msg.sender == owner);\n        selfdestruct(owner);\n    }\n}",
  "sourcePath": "D:/fial/contracts/Market.sol",
  "compiler": {
    "name": "solc",
    "version": "0.5.0+commit.1d4f565a.Emscripten.clang"
  },
  "schemaVersion": "3.0.1",
  "updatedAt": "2019-02-16T08:43:31.393Z",
  "devdoc": {
    "methods": {}
  },
  "userdoc": {
    "methods": {}
  }
}